$
:020000040008F2
:20E0000010B581B0664800F0CAF8002365490B6065490B6000F0DDFA01F08DFA002803D01B
:20E0200001236248037001E000F014FD00F004FF02F0B6F800235E490B605E4803780121B2
:20E040000B43037002F0B2F85B49087059490B78802213400B70002358490B800D28ECD072
:20E060000A28EAD0564C3A2805D100F0B6F8002800D185E02FE04C2804D100F042F9002833
:20E080007ED028E04D2804D100F098F9002877D021E04E2804D100F05BF9002870D01AE0FE
:20E0A000CE2804D100F0B5F9002869D013E05E2804D100F0E7F9002862D00CE0E52804D150
:20E0C00000F030FA00285BD005E0572858D1802338480370B1E733480368002B07D13748B0
:20E0E0000388002B03D0374803682E48036000F037FA002844D000F09BFB002840D02E4942
:20E1000008783A2801D040280DD168460330012100F08AFA002833D06A46D0782A4A11786F
:20E1200043181B062CD124490878572807D157232370201C0022012102F0A1F87DE73A2844
:20E1400001D12E23F4E74C2805D120484C23C37001220621F0E7CE2803D05E2801D0E5281F
:20E160000BD11A4CE070FF232371201C0122062102F085F8FC2323715FE74D2800D15CE7E0
:20E1800058232370201C0022012102F078F80022D0430123111C00F005FC01B010BD17E0A3
:20E1A000600709006407090068070900A40709006C070900A5070900A60709009C070900BC
:20E1C000A707090070070900A8070900A90709008546F746704701207047F0B5B54C201C1E
:20E1E000042100F021FA002800D181E0B24EB34D21786278A778E0785318FB18C3182B70B7
:20E20000AF4B198012023A43AE4B1A60002871D0022816D1002A6BD1022969D1201C00F0F6
:20E2200003FA002864D02178627853182878C01828700B031001184330600023A0480380FF
:20E2400058E0042818D1002A52D1022950D1201C00F0EAF9002805D160782178431828785F
:20E26000C0182870207803066078000418433060002393490B803DE005281AD1002A37D1D5
:20E28000042935D1201C00F0CFF9002830D021786278A778E0785318FB18C3182C78E4184C
:20E2A0002C700B06110419433B02194301433160C3E701281CD10A431AD1201C012100F08C
:20E2C000B3F9002814D02378FF2B11D100F0C2FA00280DD07C482E2303700022012101F071
:20E2E000CEFF0022D0430123111C00F05BFB01E0002005E07348036831685B1803600120E9
:20E30000F0BD30B501F0A9FFFC2805D101F0A5FF6B490880042801D2002018E0694C01F04A
:20E320009CFF051C256001F098FF03021D43256001F093FF03041D43256001F08EFF000637
:20E34000284320605E480388043B0380012030BD30B500F07FFA002809D001F07EFFFC28F0
:20E3600005D101F07AFF56490880042801D0002023E0544C01F071FF051C256001F06DFF12
:20E3800003021D43256001F068FF03041D43256001F063FF0006284320604C484C490B785F
:20E3A000C3700122062101F06AFF2268494908680123002100F0F6FA012030BD30B500F0F2
:20E3C00049FA002807D001F048FFFC2803D101F044FF052801D000201AE03A4C01F03DFFCC
:20E3E000051C256001F039FF03021D43256001F034FF03041D43256001F02FFF03061D43CC
:20E40000256001F02AFF011C281C00F04EFA012030BD30B501F021FFFF282FD101F01DFF8C
:20E4200004282BD1274D01F018FF041C2C6001F014FF03021C432C6001F00FFF03041C4333
:20E440002C6001F00AFF03061C432C60224B9C4201D1224C2C602148231A03200006834297
:20E4600006D200201E4B0021195401300B28F9DB201C002100F068FA002801D1002000E0CC
:20E48000012030BD30B501F0E8FEFF2846D101F0E4FE042842D10B4D01F0DFFE041C2C6090
:20E4A00001F0DBFE03021C432C6001F0D6FE03041C4317E0AF07090068070900A807090091
:20E4C0009C07090070070900A7070900A9070900A607090064070900EFEEBEFC000000FCE3
:20E4E000B30709002C6001F0B8FE03061C432C600020230B1B038100984A5158090B09039A
:20E500008B4202D1964B0021195401300B28F0DB201C012100F018FA002801D1002000E063
:20E52000012030BD00B501F098FEFF2814D101F094FE012810D18B480378002B06D001F0B8
:20E540008CFE01F005F8002806D007E001F085FE00F087FA002801D1002000E0012000BDA1
:20E5600000B581B029E0804803784C2B04D101F074FE6946C87006E068460330012100F0FA
:20E5800053F800280BD06A46D178784803785B180370774A106800F009F9002801D10020CE
:20E5A00010E0734803680133036072480388013B038071480368013303606E480388002B83
:20E5C000D1D1012001B000BD10B5041C01F06EFF10BD00200123694A1370694B694A138086
:20E5E000694940230B7030234B7031238B7067490E230B7004234B7001238B70FC230B7136
:20E600004871011C564B585401310B29FADB554908705F4908600021CB435E490B605E498E
:20E6200008705E490870704770B5051C0E1C30E001F013FE031C303B0A2B01D230210AE03D
:20E64000031C413B062B01D2372104E0031C613B062B17D25721401A0407240E01F0FDFD10
:20E66000031C303B0A2B01D230210DE0031C413B062B01D2372107E0031C613B062B01D22D
:20E68000572101E0002007E0431A1C432C700135013E002ECCD1012070BD30B5002406E045
:20E6A000035D0D5DAB4201D0002003E001349442F6DB012030BD10B5002416E029490B7811
:20E6C000334908682018002B06D0354B195D00F063FF002806D007E0314B195D00F0CDF940
:20E6E000002801D1002005E001342A4803689C42E4DB012010BDF0B5264E254B1A68002A49
:20E7000003D1021C1A60002333603568002D23DB032D21D0224F79550024AB1898420ED10F
:20E720006A1C2049381CFFF7B8FF002806D16A1C1D49381CFFF7B1FF002800D001242006C1
:20E7400003D0691C3160012007E0002D01DDFFF7B2FF0021C94331600020F0BDB8040900C6
:20E76000B3070900A4070900A6070900A8070900700709009C0709006C070900A507090057
:20E78000204E00009E070900BE070900A90709007407090078070900A2070900A307090065
:20E7A000C1070900B0040900B304090030B5041C0D1CFF200006231A01200006834212D2AB
:20E7C000201CFFF798FF002801D001202FE0954A1378291C201C002B02D000F0DDFE26E08E
:20E7E00000F04BF923E03F208006231A03200006834216D2002083008B49C9588C4208D1AB
:20E800008A4B195C8D4204D1894B01211954081C0DE001300B28EEDB291C201C00F046FBB7
:20E8200005E0257023780020AB4200D1012030BD10B5002400F04AF9002808D000F08AFE43
:20E84000002804D000F0E4FB002800D001242006000E10BD30B50024754D2B5D002B08D079
:20E86000724B195DA000704A105800F01FFB00280CD000232B5501340B2CEDDB00F0C8FB0B
:20E88000002803D0FFF717FF002801D100200BE0002400F01BF9002804D000F05BFE0028D7
:20E8A00000D001242006000E30BD10B5C1B00C1CFF2109060E236A461370FB2C30D8231DE2
:20E8C0005370012393704D23D370FC2301AA137000235370431A01221206934211D251487F
:20E8E000191C0378221C68460630002B04D000F07CFE002814D01FE000F01DF900280FD0C5
:20E900001AE03F218906431A032109068B4209D2221C011C6846063000F0A5FA00280BD104
:20E9200000200FE0002105E06A468A180378013093710131A142F7D3A11D6846012201F061
:20E940009EFC012041B010BD00B53A4A831A01221206934215D20023374A1360DB43374ABB
:20E960001360304A1378002B04D0324A801A00F04AFE16E0002913D10120C00300F0F8F80B
:20E980000FE03F229206831A03221206934207D2002902D000F042FC03E000F00AFD00E024
:20E9A000002000BD10B5141C7D20C0010138FDD1002B00D11C1C01F0FAFC201CFFF704FED1
:20E9C00010BD00B51E4BF920000303601D480378002B03D01C4B1D48038012E01B490888BA
:20E9E0000138088000040CD11948582303700022012101F044FC0022D0430123111CFFF735
:20EA0000D1FF00BD30B5051C002408E0002101317D231B019942FAD3FFF7D3FF0134AC42B5
:20EA2000F4D330BDA4070900B8040900E4040900B3070900000000FF7407090078070900EA
:20EA40000024F400A5070900204E00009E070900A707090000B500F0CBF800235F490B7068
:20EA600000BD00B581B000F0E7F8684603300122002100F060F801B000BDF0B5061C0F1C57
:20EA8000564C574D2078002809D0296843189E4206D000F01BF8002812D0002020702E60AA
:20EAA00021784B1C237020784E4B5F5429684318190701D0062807D100F008F8002801D112
:20EAC000002002E0002323700120F0BD10B583B042480178002901D1012017E0404A1068A0
:20EAE000020A02ACA270E07001230193A0200090A21C3C48022300F0E2F8032801D10020A4
:20EB000004E0002335490B7000F002F803B010BD10B5002406E001347D231B019C4201D11B
:20EB2000002007E0A0220221002000F058F90328F1D0012010BD30B581B0041C151C080A35
:20EB40006A469070D170A02268460230022100F046F9012809D1A022291C201C00F04AF957
:20EB6000012802D10006000E00E0002001B030BD30B581B0051CFF210020FFF77EFF0124D8
:20EB800027E0201C01340021FFF777FF00280ED0630602D1144B15480380A30519D16846AF
:20EBA000013001220021FFF7C6FF002801D1002012E068464378002B0DD0FF2369464B701C
:20EBC00001238B70CE23CB70481C0122032101F056FBAC42D5D3012001B030BDA3070900F5
:20EBE00084070900C5070900204E00009E07090010B585488169772291438161036883498E
:20EC00000B408349194301600023824C23608169090A090281618169112211438161036804
:20EC20001B041B0C7A491943016000237A4C237010237A4C237010BD78490B7830229343CD
:20EC4000184308707047734A13681906090E0220084019D0002313604B0701D5032013E095
:20EC60006F480378002B0ED0002008E06D490B6881006D4A895C195401300006000E6849A8
:20EC80000B789842F2D30120704710B5002404E00134630701D1FFF794FEFFF7D4FF0028C3
:20ECA000F6D010BD00B55B480368DB0706D5FFF7ECFF5E490870012357490B7000BDF0B5A0
:20ECC00083B002900C1C151C1F1C09A800780990FFF7E8FF38E008210998012803D1082332
:20ECE000D91B0906090E8C4201D22106090E0E1C0998019008A8007800903B1C2A1C0298D0
:20ED000000F027F8FFF7C1FF0006000E01281ED1029880190290A41B2404240C391C13D0EE
:20ED2000FF310906090E6A5C92196A546A5CB24208D309E0FF310906090E6A5C01326A54C3
:20ED4000120601D10029F5D1002CC4D1012003B0F0BDF0B581B01C1C354E0023F36206AFDA
:20ED60003F783760002C0BD0002707E0BB00314D5D19D35D2B7001373F063F0EA742F5D33B
:20ED800007AA1278002A0DD1264A1060244A11700D1C0120002C19D02B011C4325062D0E11
:20EDA000032013E000271E4A177065182D062D0E09E03B199B001F4A02B4C15D995402BC7C
:20EDC00001373F063F0E8F42F3D3002013490B7818437562B0620120F06201B0F0BD00B509
:20EDE00082B001230193009200231A1CFFF767FF02B000BD00B582B00023019300921A1C0D
:20EE0000FFF75DFF02B000BD74000F00FFFFC0C000000A0A2C050E00CB070900CC07090026
:20EE2000CD0709008807090030050E00CE07090000050E0004050E0000209D4B002119547C
:20EE400001302028F9D300239A490B709A490B709A4B9B490B609B490B685B095B011E2005
:20EE600018430860704706E00B78037001300131FF321206120E002AF6D10120704730B5C2
:20EE80000022151C04880C800388A34201D1013202E01C1C0C80002201358B4B9D4201D10D
:20EEA000002002E0642AEFD3012030BDF0B581B0051C0F1C00267F4C207800280BD0834A77
:20EEC000116843189D421CD000F0A2F8002829D00021217015D17E480670EB070FD5013D00
:20EEE00069460231281CFFF7CAFF00281AD0684643887848037001232370754803707348CD
:20EF0000056021784B1C23702078724B5F546F4A11684318190501D0202806D100F078F8F6
:20EF2000002801D1002001E02670012001B0F0BD30B5614D2B78002B52D13F24A406208888
:20EF40006188654B2380654A62802388624A934204D12080618004232B7041E0902000F0DF
:20EF600015F92088BF2816D1902000F00FF960885B4B18404F23DB01984209D0594B984200
:20EF800006D0594B984203D09D239B01984202D1012028703BE0902000F001F92088012802
:20EFA00020D1902000F0FBF860884D4B18404F4B984210D08B239B01984208D102232B70E4
:20EFC00001234B490B704B4B4B490B6008E089239B01984206D102232B70002344490B709D
:20EFE000012014E0902000F0DAF844490888F02323801C280AD1902000F0D1F86088F02334
:20F0000023803F4B984201D10323E5E7002030BDF0B582B0274D002201922878002800D17F
:20F020009CE02C4E294FC30712D5694602313A688318581EFFF723FF002800D18AE0287801
:20F040006A4651880B1233540130287001200190FFF76EFF00287DD017490878012803D054
:20F06000022801D003285FD138683F218906431A1A0BD10820296DD20D4B5207520F012491
:20F080009440595C214011D100F0C8F8002861D00F480378002B01D0FF2333700198002847
:20F0A00004D0731E2878C018FF230370002437E0CF070900A2070900EF07090002030A0AFA
:20F0C00070000F0064000F00C02709008C070900F0070900F107090034120000785600009D
:20F0E000E0FF00002027000060530000A02200001108090000C00FFC90070900000200FCEA
:20F10000BA220000A01940780302315D19436A4651803868201800F067F800281AD00234C3
:20F120002B789C42EED317E0042813D100240DE0A01940780302315D19436A4651803868F4
:20F140000153035B5088834204D102342B789C42EED301E0002002E000232B70012002B09F
:20F16000F0BD00B5F0233F2292061380A74A1178012902D100F00AF807E0022901D0032916
:20F1800002D100F00CF800E0FEE700BDAA23A0490B8055239F490B809D4908807047AA2308
:20F1A0009D490B8055239D490B809B490880704730B593009A1A01E0013A0ED080230B40BE
:20F1C000048880252C40A342F6D1F0233F24A4062380052203E0013A01D1002003E003887E
:20F1E0009942F8D1012030BD30B5041C0D1CA020FFF7B7FF258085490A78012A05D1142297
:20F20000291C201CFFF7D4FF07E0022A01D0032A02D1FF226932F3E7002030BDF0B581B047
:20F22000051CFFF785FE002800D1BFE0774E3378042B00D1BAE02B051B0DED1A3F239B0630
:20F24000E91A00910C0BA310580F0319DF10202F00DBABE08020FFF784FF3078012802D16C
:20F260006B4A6C4906E0022802D0032800D09DE0694A6A49AA23138055230B8030232B8003
:20F28000012815D1664A6749281CFFF791FF00280ED06548A310590F0B19D910CB00E11A94
:20F2A0000122131C8B40C15D1943C155101C7EE03078022801D0032878D15C4A1378002BA4
:20F2C0000DD10099574A531C99422CD25B10994222D25B10994212D2042600242BE0544A73
:20F2E00011688D4206D304266310990F0B1999108B001EE0012292038B1A9D4207D3022614
:20F30000E30F19194B105900631AE41A13E0032292038B1A9D4206D30826A310590F0B1923
:20F32000D910CB0005E01026E310190F0B1919110B01E11A641A02281AD13E4A3949281CAD
:20F34000FFF736FF002831D03748A310590F0B19DF10A310590F0B19D910CB00E11A01229B
:20F360008A40C15D1143C1550134013EECD11BE003281BD1304A2B49281CFFF719FF002890
:20F3800014D02948A310590F0B19DF10A310590F0B19D910CB00E11A01228A40C15D11439D
:20F3A000C1550134013EECD1012000E0002001B0F0BD30B53F25AD06FFF7BAFD00286ED078
:20F3C000124C2378042B6AD08020FFF7CAFE2078012805D1AA230E4A13800E4A0C4908E089
:20F3E000022801D003285AD1AA230B4A13800B4A09495523138010230B8001282AD10F4A1A
:20F400000849281CFFF7D4FE1AE0C046EF070900AAAA00FC545500FCAA0A00FC540500FC96
:20F42000A8610000FFFF0000CF070900110809009007090080841E0080969800A08601002D
:20F44000002807D00020174BFF21195401302028F9D322E02378022B0ED1134A1349281CB3
:20F46000FFF7A6FE002807D000200E4BFF21195401302028F9D310E02378032B0FD10C4AB9
:20F480000A49281CFFF794FE002808D00020054BFF21195401302028F9D3012000E00020EA
:20F4A00030BDC046CF07090080969800FFFF000000E1F50500215E4B585401314029FAD315
:20F4C000704710B5000BC2084007400F012383401806000E564CA35C002901D0034300E071
:20F4E0008343A35410BDF0B581B0051C0E1C1EE0290B0091CF084807400F012383401C0620
:20F50000240E4B49C85D204007D1281C012100F07AF8474AD35D2343D355009A531C1B038A
:20F52000581E431B591CB14203D2761A451C002EDED101B0F0BD00B500203E490880FFF7B4
:20F54000B9FF00F081F800F098F80006000E00BD0120704730B5374D2988002901D101202B
:20F5600019E0354A14683548231A01200006834201D2324BE41A201CFFF7B5FF304A298892
:20F58000201C00F08DF92988884201D0002000E0012000232B8030BDF0B5061C0F1C254C2E
:20F5A000254D2088002809D0296843189E4206D0FFF7D0FF002812D0002020802E602188C8
:20F5C0004B1C238020881E4B5F5429684318190501D0402807D1FFF7BDFF002801D1002076
:20F5E00002E0002323800120F0BD10B50B1C141C021C211C181C00F036FAA04201D00020F7
:20F6000000E0012010BD10B5002909D0041C0121090300F0ACFA201C0121FFF752FF05E0E7
:20F62000084900F0A4FAFF20FFF744FF012010BD12080900A007090094070900000000FF2F
:20F6400052080900FFFFFF0FAD490B7801218B43AB490B700023AB490B7001207047AA4906
:20F660000B681B021B0A0B60A8490B68A84803400B600823A7490B607047F0B584B0A64D5F
:20F680009F4CFFF7ECFF00230093A4481A1C191C00F082FBA9690391EE692F68A048006840
:20F6A0000290A869000A000222210843A861E8690002000A09060843E8612B681B041B0C2B
:20F6C000984818432860964803681B041B0C9648184393490860237801208343237001A89D
:20F6E00000F0F3F9002857D00021904DCB00EA18137883421AD1537801AF3E78B34215D1CD
:20F7000093787E78B34211D1D37801AFBE78B3420CD1137986480370937986480370237859
:20F720000C2083430120617000211FE001310906090E0629D9D301A80378202B04D1437893
:20F74000402B01D1062300E007236370DB00E8188379784A137001AA907803071B0F744AA5
:20F76000137023780C2083430121081C034320208343C807800E03432370624A1378002B4F
:20F7800006D100F047F8002802D0002000F049F800F0E4FA012006E0039AAA61EE612F60BD
:20F7A0005F49029A0A6004B0F0BD30B5051C614C2378DB0603D5502000F055FB06E0062077
:20F7C00000F051FB00F018F88007FBD523781B0703D500F011F8C007FBD42B0201211943C7
:20F7E0000804000C00F04DFB23781B0703D500F003F8C007FBD430BD10B581B005236C46E6
:20F80000E370A31CE11C0122101C00F088FBA07801B010BD00B5FFF7EFFF0C2108408010E3
:20F8200000BD10B583071C0FFFF7E6FFF32108400443201CFFF7B9FF3E4A1378DB0702D55D
:20F84000201CFFF7B2FF10BD00B5FFF7D5FFC007FBD400BD70B582B001900C1C151C002CB9
:20F860001CD0062000F0FFFA01A80178090642781204114382781302194302260E430096BE
:20F880006A46201D0123042100F017FB2A1C211C201C002300F011FBFFF7D6FF02B070BDA8
:20F8A000F0B586B000900C1C151C00F0C5F814490B78DB0703D4FFF7E0FE002801D0002C45
:20F8C00001D10020A1E00F480378002B03D00020FFF7A7FF0EE017480378DB0603D5502038
:20F8E00000F0C1FA06E0062000F0BDFAFFF784FF8107FBD50F49087843064ED51CE0C04693
:20F90000920809009608090068000F0088000F00FF0FFFFF20C00F0074000F00C05D0000F4
:20F920000C010F000000313200003232F00409009708090098080900FF270137830700D5D9
:20F940008027009E311C381C00F0A8FD3A1A0192A24200D901940198211A381C00F082FD5C
:20F96000039102902A1C0199301CFFF773FF009E019976186D1805E0391CFFF76BFF009E4A
:20F98000F619ED1900962A1C301C029901390291F2D20399FFF75EFF2DE0062000F063FA8F
:20F9A000AF21012C00D1022104AA1170684683785370437893700378D3702978013505A8BB
:20F9C000017001230521081C00F077FAFFF73CFF661E0BE02978013504AA517001230221BA
:20F9E000081C00F06AFAFFF72FFF013E002EF1D1042000F038FA87490B78002B02D0032083
:20FA0000FFF70FFF00F003F8201C06B0F0BD00B5814803781B060ED5804908788308052161
:20FA20001940042907D1B92000F01DFA7B490B78082003430B7000BD10B5784C23781B0755
:20FA400010D5AB2000F00FFA002000E001300322A1560902A2780A439042F7D323780820DF
:20FA60008343237010BD30B583B000900C1C151CFFF7E2FF69490B78DB0703D4FFF7FDFDAA
:20FA8000002801D0002C01D100201CE06846837801A94B7043788B700378CB705E480378B8
:20FAA0009B0605D50B230B70552302A9052001E0032304200B702B1C221C01A900F02FFAEC
:20FAC000FFF7A5FF201C03B030BD10B583B0041C9F23684683701523C37090230293002C56
:20FAE00000D101ACAB2000F0BEF9FF2087300138FDD1231C694602310322012000F00FFAD9
:20FB00002078002803D0FF2801D003201DE0231C694603310222012000F001FA0023A370B2
:20FB20002078002801D0FF280CD1231C02A90222042000F0F4F90023A3702078002803D058
:20FB4000FF2801D0022000E0002003B010BD00B532480378DB0703D4FFF78FFD002805D029
:20FB60002F490878030401200004181800BDF0B581B000900E1CFFF75FFF28490B78DB07BA
:20FB800003D4FFF77AFD002866D022480378002B05D0FFF73FFE051C0020FFF742FE06200E
:20FBA00000F061F91D494A78062A23D001231B031C4C9E420DD86F46397808067E7836049D
:20FBC0003043BB781B021843142353431A19127B1BE0DB009E4229D86F46397808067E7859
:20FBE00036043043BB781B021843142353431A19527B0AE06B46197808065A78120410436B
:20FC00009A781302184308498A79104300F047F912E0C046960809009808090092080900A0
:20FC20009708090030050900B0050900142151430919C87B00F017F9FFF7DEFDC107FBD48A
:20FC400051480378002B02D0281CFFF7EAFD042000F009F9FFF7DBFE01B0F0BDF0B5A0B03A
:20FC6000061C0F1C151C494C2378DB0703D4FFF704FD00281FD023780420034323700AE08D
:20FC80008021FFF7F0FE6A468021301CFFF708FE80368037803D6A46381C802DF0D8291C5E
:20FCA000FFF7E1FE23780420834323706A46291C301CFFF7F5FD20B0F0BD10B5334C2378D2
:20FCC000DB0703D4FFF7D9FC002846D0304803781B0642D52F480F22120411680907090FD8
:20FCE000012905D30AD002290FD0042913D019E06378DB00C0184079302111E06378DB00D6
:20FD0000C01840794001803812E06378DB00C0184079182104E06378DB00C01840790C218F
:20FD2000484304E06378DB00C0184079000190384310990F0B189810A070A278000AE070FA
:20FD400000060014024302D50023A370E3702378102003432370FFF75AFE10BD00B50B481D
:20FD60000378DB0703D4FFF788FC00280AD0084803781B0606D5FFF75FFE04490B781020B9
:20FD800083430B7000BDC046960809009208090098080900F0040900F0B584B00C1C1D1C35
:20FDA00001A934C1792464030025AB4E0F23DB02236020216162E16165603F212161311CB6
:20FDC000009000F04FFB0F1C01280DD303D0032804D306D008E0656101201CE065610220C7
:20FDE00019E06561032016E0231C009A5000311C002F07D101255D6100F034FBAD042D1AB3
:20FE0000681C08E001256D045D6100F02BFB0138291C00F027FBA061206A03267602B0425D
:20FE2000FAD1A06A01267602B042FAD101A82CC80999194311432943B5000D43256004B0F8
:20FE4000F0BD79204003C368DB05FCD5036870218B4303600121C160C168FF2301331940F5
:20FE6000FAD1C160704700B57C49087001237C490B6004390B68202003430B60FFF7E1FF22
:20FE800000BD00B575490880022375490B6004390B68202003430B60FFF7D3FF00BD00B581
:20FEA0006E49086004236E490B6004390B68202003430B60FFF7C5FF00BD30B5041C0D1C94
:20FEC000002C12D0002D10D0002B06D064490C6004390B68202003430B60111C281C00F0EB
:20FEE00056F8AC4201D1FFF7ACFF30BD30B5041C0D1C002C12D0002D10D0002B06D058497B
:20FF00000C6004390B68502003430B60111C281C00F0C0F8AC4201D1FFF793FF30BDF0B5B1
:20FF2000041C0D1C161C1F1C002C2FD0002E2DD033194B480360291C402C15D9402000F084
:20FF400026F8484A136870200343136007E0291C402000F01CF84020002100F09BF8403524
:20FF6000403C402CF3D807E0201C00F010F83D4A1368702003431360201C002100F08AF899
:20FF8000391C301C00F086F8FFF75BFFF0BD70B5051C324C344E8807800F19D00422101AB8
:20FFA000A84200D9281C33685B065B0E3D2BFAD801280CD308D0032803D308D10A7801312D
:20FFC00022700A78013122700A78013122702D1A0A1C3BE030684006400E402800D94020AE
:20FFE0004023181A854200D2281C8308581E0F282AD801A1095C8F444A46423E3A36322E9B
:020000040009F1
:200000002A26221E1A16120E01CA206001CA206001CA206001CA206001CA206001CA20603E
:2000200001CA206001CA206001CA206001CA206001CA206001CA206001CA206001CA206068
:2000400001CA206001CA20609B00ED1A032DC1D8002D1ED0111C09E0C05D000000210F0021
:2000600004200F0000200F0020200F00B3685B065B0E3D2BFAD8012D0BD308D0032D03D3C6
:2000800007D10878013120700878013120700878207070BD70B5051C3F4C404E00290BD163
:2000A00033685B065B0EAB42FAD300E020782B1C013D002BFAD86DE08807800F19D00422AD
:2000C000101AA84200D9281C33685B065B0E8342FAD301280CD308D0032803D308D12278A4
:2000E0000A70013122780A70013122780A7001312D1A0A1C36E030684006400E854200D280
:20010000281C8308581E0F282AD801A1095C8F444A46423E3A36322E2A26221E1A16120EC7
:20012000206801C2206801C2206801C2206801C2206801C2206801C2206801C2206801C267
:20014000206801C2206801C2206801C2206801C2206801C2206801C2206801C2206801C247
:200160009B00ED1A032DC6D8002D13D0111C33685B065B0EAB42FAD3012D0BD308D0032D9F
:2001800003D307D12078087001312078087001312078087070BDC04600210F0028200F0063
:2001A00000234F4803604F480370704700B501234D490B7000F051F800234B490B7000BD4F
:2001C00000B582B000F092F8002806D000F093F8684600F094F86946087802B000BD30B598
:2001E0003F4C2068002832D13E4D3F480378002B07D000F08DF8FFF7E3FF3B480378002BBC
:2002000002D12B78002B0DD000F086F8002809D000F097F8002000F09CF8206001232B708F
:20022000002814D130480378002B02D12B78002B11D100F076F800280DD000F086F802201D
:2002400000F087F8206000232B70002803D0431E2360012000E0002030BD00B501E0FEF779
:20026000B0FBFFF7BCFF0028F9D01E480378002B01D0002000E0022000F077F800BDF0B571
:20028000061C0D1C002724E000F076F800F040F800F04FF80028F7D02C1C102C00D91024AB
:2002A0000027102C00D101272D1B2D042D0C04E031780136012000F063F8013CF8D200F009
:2002C00064F800F059F800F023F800F032F80028F7D0002DD8D1002F01D000F061F8F0BDA1
:2002E00098070900990809009A0809004A490B68D807C00F70470123474803607047474A38
:20030000002113684354043201310729F9DD7047102341480360704741490B68D807C00F04
:2003200070473F490B6804210B4000D00123181C70473C490B6802210B4000D00123181C2E
:20034000704701233648036070470423344803607047011C8B003448C05800680004000CB9
:20036000324B595C2E4A1160704783003048C05800680006000E704702232A4803607047B4
:2003800083002B48C058016070472A490B6802210B4328490B600B68022083430B60704787
:2003A000254803680220034323480360704730B5224C1C482249234D2B68802213432B60D0
:2003C0000023214D2B60214B214D2B6003231B03204D2B600A22013AFDD11F4B1C4D2B60CD
:2003E0000A22013AFDD1FF2323606360A360E36023616361A361E36123628360436003601C
:200400008B604B600B60154D2B60083D6B602B6013480138FDD130BD88330E0010300E00ED
:2004200084330E0080330E00AC0809009C080900A008090000330E0004330E0074000E0013
:2004400080370E0000C40F0000C20F00FFFF3F005C000F0000010F0001FF3F00883B0E006B
:200460000053070030B400230124021C04D10E4A002A10D030BC1047914207D3891A1B19DA
:200480004D08AA42F8D252006400F5E7012C02D052086408F0E7181C30BC704700B5FFF7A1
:0C04A000E1FF081C08BC18470000000029
:020000040009F1
:0404AC002047284776
:020000040009F1
:2004B0000108000106000000C80000FCE81000FCE88000FC00E003FC00F003FC00E007FC4F
:2004D00000F007FC00E009FC00F009FC00E00FFC00F00FFC43434301010101010101010088
:2004F00003C220140F03EC00031F6601011E6D00031F6500001EEE0002BF480000FF300015
:2005100002BF490001FF300003C220100003EC00032040140F1EEC000320FF140F1EEC00CE
:2005300006049F0501030BFF02FFFFFF20D8D8C7B9AB000006049F0501030BFF02FFFFFF3A
:2005500020D8D8C7FFFF0000060415050103FFFF02FFFFFF20525262B9AB000006049005A8
:2005700001030BFF02AF50FFFF20D8C7FFFF00000604900501030BFF02AF50FFFF20D8C736
:20059000FFFF000006049F0501030BFF02FFFFFF20D8D8C7B9AB000006049F0501030BFFDB
:2005B00002FFFFFF20D8D8C7B9AB000006049F0501030BFF02FFFFFF20D8D8C7B9AB00007B
:020000040009F1
:1C089C000100040000310E0040310E0080310E0030330E000000000038330E00D4
:00E000011F
